:020000040000FA
:030000000200BA41
:03001300020418CC
:03001B000204DB01
:03003300020324A1
:03003B0002047448
:03004B000203F2BB
:030063000201BFD8
:03006B000202048A
:030073000205374C
:03007B00020294EA
:100083000203B400000080FB1200EAB9000302007F
:10009300A4E4900F00783E79038002F0A3D8FCD942
:1000A300FA7582A975830574001200CC7582867572
:1000B300830074001200CC75D0007581BF751000E9
:1000C30075110F759F0002008BC09FF59FE473D0DD
:1000D3009F22D083D082C09FE493C0E0740193C079
:1000E300E0740293F59F227901221200D59E050048
:1000F300700422600D18C6C333C608C633C6D5E0E4
:10010300F41822E473C0D02510C582C0E0E5113491
:10011300FFC583C0E0E510C3958224F310AF0885C3
:1001230083118582108008858311858210D2AFC820
:10013300F0A3E9F0A3EAF0A3EBF0A37908E709F051
:10014300A3D8FAECF0A3EDF0A3EEF0A3EFF0A3D065
:10015300E0F0A3D0E0F0A3D0E0F0A3E520F0A3E526
:10016300F0F0A322851183851082E0C0E0A3E0F9BB
:10017300A3E0FAA3E0FBA37808E0F608A3DFFAE024
:10018300FCA3E0FDA3E0FEA3E0FFA3E0C0E0A3E047
:10019300C0E0A3E0F5D0A3E0F520A3E0A3F5F010C1
:1001A300AF088583118582108008858311858210AD
:1001B300D2AFD082D083D0E0F8D0E032C0E074F286
:1001C300120108C2DBC2C4900F01E02401F0A3E0D6
:1001D3003400F0900F01E064A17004A3E0640770A1
:1001E30015900F017400F0A37400F0900F007401D8
:1001F300F01200ED8006900F007400F07F01020101
:1002030067C0E074F1120108C2C5E589607E7E0013
:100213008074750801750900EE78081200F3E5088B
:10022300AF08E5895F605EEEF87900E875F002A437
:10023300C8AAF075F000A42AFA75F002E9A42AF915
:10024300740328F582740F39F583E0F8A3E0F9E825
:1002530049602EEEF87900E875F002A4C8AAF0759B
:10026300F000A42AFA75F002E9A42AF9740328F528
:1002730082740F39F583E0F8A3E0F58388821201D5
:1002830006EFF452890EEEC3940840867F02020102
:1002930067C0E074F1120108C2EBE58A607E7E005C
:1002A3008074750801750900EE78081200F3E508FB
:1002B300AF08E58A5F605EEEF87900E875F002A4A6
:1002C300C8AAF075F000A42AFA75F002E9A42AF985
:1002D300741328F582740F39F583E0F8A3E0F9E885
:1002E30049602EEEF87900E875F002A4C8AAF0750B
:1002F300F000A42AFA75F002E9A42AF9741328F588
:1003030082740F39F583E0F8A3E0F5838882120144
:1003130006EFF4528A0EEEC3940840867F02020170
:1003230067C0E074F1120108C2E8E58B607E7E00CD
:100333008074750801750900EE78081200F3E5086A
:10034300AF08E58B5F605EEEF87900E875F002A414
:10035300C8AAF075F000A42AFA75F002E9A42AF9F4
:10036300742328F582740F39F583E0F8A3E0F9E8E4
:1003730049602EEEF87900E875F002A4C8AAF0757A
:10038300F000A42AFA75F002E9A42AF9742328F5E7
:1003930082740F39F583E0F8A3E0F58388821201B4
:1003A30006EFF4528B0EEEC3940540867F020201E2
:1003B30067C0E074F2120108A2AFE433FEC2AFE5F6
:1003C300E9A2E65020900F2DE0F8A3E0F9E8496098
:1003D3000E900F2DE0F8A3E0F583888212010675D5
:1003E3009B0053E9BFEEA2E092AF7F01020167C019
:1003F300E074F2120108900F2FE0F8A3E0F9E84946
:10040300600E900F2FE0F8A3E0F5838882120106B7
:100413007F01020167C0E0C0D0E8C0E0E9C0E0C0EE
:1004230082C083E5C1C0E0900FB2E0F87900743177
:1004330028F582740F39F583D0E0F0900FB1E0F81E
:10044300900FB2E0687006E595900FB3F0900FB28D
:10045300E02401900FB2F0C394804006900FB27471
:1004630000F0D083D082D0E0F9D0E0F8D0D0D0E053
:1004730032C0E0C0D0E8C0E0C008C009C082C08379
:10048300901034E0F8901035E068700B539AFB90AD
:1004930010367401F08031C2E9901034E0F508742D
:1004A300012508901034F075090074B42508F5820D
:1004B300740F3509F583E0F5C1901034E0C39480DF
:1004C30040069010347400F0D083D082D009D00855
:1004D300D0E0F8D0D0D0E032C0E0C0D0E8C0E0E94E
:1004E300C0E0C082C083E5F9C0E09010B8E0F879BD
:1004F30000743728F582741039F583D0E0F090103A
:10050300B7E0F89010B8E0687006E5959010B9F080
:100513009010B8E024019010B8F0C3948040069086
:1005230010B87400F0D083D082D0E0F9D0E0F8D0D6
:10053300D0D0E032C0E0C0D0E8C0E0C008C009C0FD
:1005430082C08390113AE0F890113BE068700B533E
:100553009AF790113C7401F08031C2EA90113AE0AD
:10056300F5087401250890113AF075090074BA254D
:1005730008F58274103509F583E0F5F990113AE036
:10058300C39480400690113A7400F0D083D082D097
:1005930009D008D0E0F8D0D0D0E03253EBF753EBDA
:0D05A300EFC2BC0200D27A007B000200D241
:04000005000000BA3D
:00000001FF
